:020000040800F2
:10000000780C0020ED040008C1020008C3020008BB
:10001000C7020008CB020008CF0200080000000061
:10002000000000000000000000000000D3020008F3
:10003000D502000800000000D7020008D90200081D
:100040000705000807050008070500080705000860
:100050000705000807050008070500080705000850
:100060000705000807050008070500080705000840
:100070000705000807050008070500080705000830
:100080000705000807050008070500080705000820
:100090000705000807050008070500080705000810
:1000A0000705000807050008070500080705000800
:1000B00007050008070500080705000807050008F0
:1000C00007050008070500080705000807050008E0
:1000D000070500089B190008070500080705000828
:1000E00007050008070500080705000807050008C0
:1000F00007050008070500080705000807050008B0
:10010000070500080705000807050008070500089F
:10011000070500080705000807050008070500088F
:10012000070500080705000807050008070500087F
:10013000070500080705000807050008070500086F
:10014000070500080705000807050008070500085F
:10015000070500080705000807050008070500084F
:10016000070500080705000807050008070500083F
:10017000070500080705000807050008070500082F
:10018000070500080705000800F002F800F044F831
:100190000AA090E8000C82448344AAF10107DA45E2
:1001A00001D100F039F8AFF2090EBAE80F0013F0F0
:1001B000010F18BFFB1A43F001031847503200002B
:1001C00070320000103A24BF78C878C1FAD85207BC
:1001D00024BF30C830C144BF04680C6070470000C1
:1001E0000023002400250026103A28BF78C1FBD840
:1001F000520728BF30C148BF0B607047642902F026
:100200003B86782902F07486002070471FB503F002
:10021000DAF81FBD10B510BD03F09CF81146FFF7CA
:10022000F5FF00F008F803F0BAF803B4FFF7F2FFA7
:1002300003BC01F067FB01F080FE40E001F066FEC8
:100240004DF6DD52811A90422FD00ADCA0F5B44061
:10025000A0F15A0080B1A0F5E440A0F1720060BBAB
:1002600024E0A1F58850A0F1110088B1A0F58850D4
:10027000A0F1110008BB08E001F065FE401C18B9B0
:100280004FF6FF7001F037FE18E001F0A4FE15E014
:1002900001F02AFF20B945F65A2001F02CFE03E0B8
:1002A0004FF6FF7001F027FE08E007E001F082FF43
:1002B0004FF6FF7001F01FFE00E000BF00BFBDE77A
:1002C000704700BFFEE700BFFEE700BFFEE700BFCC
:1002D000FEE7704770477047704700000CB500207C
:1002E000019000907648006840F4803074490860BE
:1002F00000BF7348006800F4003000900198401C73
:100300000190009818B90198B0F5A04FF1D16C4850
:10031000006800F4003010B10120009001E00020DE
:1003200000900098012846D165484030006840F0B0
:1003300080506349403108606248006840F44040A2
:10034000604908605E48083000685D49083108600F
:100350000846006840F4004008600846006840F421
:10036000A05008605848091F0860081F006840F046
:100370008070091F086000BF5148006800F00070DD
:100380000028F9D040F20570504908604C48083008
:10039000006820F003004A490831086008460068F8
:1003A00040F00200086000BF45480830006800F0D7
:1003B0000C000828F8D10CBD10B54548006840F481
:1003C0007000434908603E48006840F001003C4925
:1003D000086000203A4908310860394800683D4902
:1003E0000840374908603C48091D0860081F00683C
:1003F00020F48020091F0860002031490C3108607A
:10040000FFF76CFF4FF0006031498039086010BD84
:1004100070B500200022022300240221284D083557
:100420002D6805F00C0020B1042806D0082834D12E
:1004300007E02A4D2A4E356033E02A4D284E3560BC
:100440002FE01F4D2D1D2D68C5F380541C4D2D1D13
:100450002D6805F03F0154B1224DB5FBF1F5184E62
:10046000361D3668C6F3881605FB06F209E01B4DFB
:10047000B5FBF1F5124E361D3668C6F3881605FB3E
:1004800006F20F4D2D1D2D68C5F301456D1C6B0047
:10049000B2FBF3F5124E356003E0104D104E35609F
:1004A00000BF00BF064D08352D68C5F303150E4E7D
:1004B000705D0B4D2D68C540094E356070BD000064
:1004C000003802400070004008544007003C0240E1
:1004D00088ED00E0FFFFF6FE103000240024F40059
:1004E0000000002000127A00040000200948804724
:1004F00009480047FEE7FEE7FEE7FEE7FEE7FEE706
:10050000FEE7FEE7FEE7FEE704480549054A064B1D
:1005100070470000B9030008890100087806002030
:10052000780C00207808002078080020FE4A10701F
:10053000704730B1FC49096841F48071FA4A116092
:1005400005E0F949096821F48071F74A11607047A4
:1005500030B1F549096841F40071F34A116005E0D2
:10056000F149096821F40071EF4A1160704730B118
:10057000ED49096841F48061EB4A116005E0EA4900
:10058000096821F48061E84A11607047E648006814
:1005900040F40060E44908607047E348006840F4B4
:1005A0008050E14908607047DF481030006800F073
:1005B000004028B1DD48DC49091D0860DC480860BE
:1005C0007047D9481030006840F00040D6491031DB
:1005D000086070470920D4490C31096801F4803162
:1005E000B1F5803F01D1012020E0CF490C310968ED
:1005F00001F0100109B1062018E0CB490C3109685F
:1006000001F4807109B1022010E0C7490C3109687A
:1006100001F0EF0109B1072008E0C3490C31096876
:1006200001F0020109B1082000E00920704708B577
:1006300009200090FFF7CEFF009002E0FFF7CAFF0D
:1006400000909DF800000128F8D09DF8000008BD3A
:1006500070B504460A460026092502B909E0012AB8
:1006600001D1160205E0022A01D1160201E04FF481
:100670004076FFF7DCFF0546092D2DD1AA48103042
:10068000006820F44070A8491031086008460068EE
:10069000304308600846006820F0F800086008460B
:1006A000006844F0020108439F4910310860084681
:1006B000006840F480300860FFF7B9FF05469A48AB
:1006C0001030006820F00200974910310860084699
:1006D000006820F0F8000860284670BD30B502467A
:1006E00000250924FFF7A3FF044602B909E0012A07
:1006F00001D1150205E0022A01D1150201E04FF4F3
:100700004075092C20D188481030006820F44070D2
:10071000854910310860084600682843086008468B
:10072000006840F0040008600846006840F480302B
:100730000860FFF77CFF04467B481030006820F01B
:100740000400794910310860204630BD30B50246BA
:1007500000250924FFF76BFF044602B909E0012ACE
:1007600001D1150205E0022A01D1150201E04FF482
:100770004075092C20D16C481030006820F440707E
:100780006949103108600846006828430860084637
:10079000006840F0040008600846006840F48030BB
:1007A0000860FFF744FF04465F481030006820F0FF
:1007B00004005D4910310860204630BD30B5024666
:1007C00000250924FFF733FF044602B909E0012A96
:1007D00001D1150205E0022A01D1150201E04FF412
:1007E0004075092C20D150481030006820F440702A
:1007F0004D491031086008460068284308600846E3
:10080000006840F4004008600846006840F480300A
:100810000860FFF70CFF044643481030006820F4DE
:100820000040414910310860204630BD70B5064691
:1008300014461D460922FFF7FAFE0246092A1ED178
:1008400039481030006820F4407037491031086092
:100850000846006840F4407008600846006840F0B0
:100860000100086034607560FFF7E1FE02462E4823
:100870001030006820F001002B491031086010464C
:1008800070BD30B502460C460925FFF7D0FE05467F
:10089000092D1DD124481030006820F440702249F1
:1008A000103108600846006840F40070086008468F
:1008B000006840F0010008601460FFF7B8FE0546CC
:1008C00019481030006820F0010017491031086005
:1008D000284630BD30B502460C460925FFF7A7FE75
:1008E0000546092D1DD110481030006820F44070D5
:1008F0000D49103108600846006840F480700860B7
:100900000846006840F0010008601480FFF78FFE81
:10091000054605481030006820F0010002491031FA
:100920000860284630BD0000003C024023016745B6
:10093000AB89EFCD30B502460C460925FFF777FEAF
:100940000546092D17D19B48006820F4407099494D
:1009500008600846006808600846006840F001002A
:1009600008601470FFF763FE05469248006820F0A7
:10097000010090490860284630BD8E48001D00687F
:1009800000F0010028B18C488A49083908608B487A
:10099000086070478748001D006840F001008549E5
:1009A000091D0860704730B502460C460925FFF75F
:1009B0003EFE0546092D10D13CB17E48801D0088C1
:1009C00090437C49891D088007E07A48801D008893
:1009D00091B208437749891D088030BD30B5024681
:1009E0000C460925FFF723FE0546092D10D13CB121
:1009F00070480A30008890436E490A31088007E049
:100A00006C480A30008891B208436A490A3108806C
:100A100030BDFF21674AD21D127802F07F0140EA03
:100A20000102644BDB1D1A70704730B502460C465C
:100A30000925FFF7FCFD0546092D10D144B15D489D
:100A4000801D008891B208435A49891D088006E03C
:100A50005848801D008890435649891D088030BD44
:100A600030B502460C460925FFF7E1FD0546092D84
:100A700010D144B14F480A30008891B208434D4923
:100A80000A31088006E04B480A3000889043494903
:100A90000A31088030BD10B502460924FFF7C7FDB2
:100AA0000446092C02D14348401D027010BDF0B528
:100AB00004460D46FF260927FFF7B9FD0746092F13
:100AC0000BD13C48001D007800F00F0645EA0600F7
:100AD000104320433749091D0870F0BD3549091DF1
:100AE000097821F01001334A121D1170114609785E
:100AF0000143117070472F49091D097821F00C013D
:100B00002C4A121D1170114609780143117070476B
:100B100000B509222748001D007840F00200254951
:100B2000091D0870FFF783FD0246104600BD2148ED
:100B3000001D0068C0F3471070471E48801D0088E4
:100B400070471C480A30008870471A48801D00888A
:100B5000704718480A300088704700201549491D21
:100B60000978AA2901D0012000E00020704711482F
:100B7000001D007800F00C00704729B10D4A126882
:100B800002430C4B1A6004E00A4A12688243094B84
:100B90001A60704701460020064A121F12680A4078
:100BA0000AB1012000E0002070470249091F0860D7
:100BB00070470000103C02403B2A19087F6E5D4CD4
:100BC00010B504469848844208D10121084600F037
:100BD00086FB0021012000F082FB76E093488442EE
:100BE00008D10121022000F07AFB0021022000F050
:100BF00076FB6AE08E48844208D10121042000F08F
:100C00006EFB0021042000F06AFB5EE0894884420C
:100C100008D10121082000F062FB0021082000F02B
:100C20005EFB52E08448844208D10121102000F08C
:100C300056FB0021102000F052FB46E07F48844222
:100C400008D10121202000F04AFB0021202000F0E3
:100C500046FB3AE07A48844208D10121402000F066
:100C60003EFB0021402000F03AFB2EE07548844214
:100C700008D10121802000F032FB0021802000F00B
:100C80002EFB22E07048844208D10121801500F03B
:100C900026FB0021A01500F022FB16E06B488442E1
:100CA00008D10121401500F01AFB0021601500F069
:100CB00016FB0AE06648844207D10121001500F0C6
:100CC0000EFB0021201500F00AFB10BDF0B50A460E
:100CD00000210023002400BF3DE0012505FA01F3B7
:100CE000156805EA03049C4234D105684F000326C9
:100CF000BE40B543056015794E00B54006683543E2
:100D000005601579012D02D01579022D16D185685F
:100D10004F000326BE40B543856055794E00B5406F
:100D2000866835438560456801268E40B543456039
:100D3000456896798E40B6B235434560C5684F0028
:100D40000326BE40B543C560D5794E00B540C668A0
:100D50003543C560491C1029BFD3F0BD4FF6FF7164
:100D600001600021017141718171C171704708B545
:100D70004FF480320092009A0A430092009AC261B6
:100D8000C161009AC261C2690092C269009208BD45
:100D90000246002013690B400BB1012000E0002047
:100DA00070470146086980B27047024600205369C7
:100DB0000B400BB1012000E000207047014648695C
:100DC00080B2704701837047418370470AB1018345
:100DD00000E0418370474161704742694A40426187
:100DE0007047F0B5002300244D07ED0E02FA05F31D
:100DF000CE1000F1200555F826504E07F70E0F26AD
:100E0000BE40B543CF1000F1200646F82750CE1063
:100E100000F1200555F8265045EA0304CE1000F1F4
:100E2000200545F82640F0BD0000024000040240C5
:100E300000080240000C0240001002400014024072
:100E400000180240001C0240002002400024024022
:100E500000280240F948006840F00100F7490860A6
:100E60000020F64908310860F4480068F449084059
:100E7000F2490860F348091D0860F348EF498431DE
:100E80000860F0481038091D0860EC48006820F43C
:100E90008020EA4908600020E8490C310860E749F1
:100EA0008C31086070470021E44A921C1170114691
:100EB0000870704710B501460022002300204A1137
:100EC000012A02D1DD4C236808E0022A03D1DB4C61
:100ED0007034236802E0D94C7434236801F01F0297
:100EE000012494401C400CB1012000E0002010BD02
:100EF00038B5002000900024002500BF3120FFF706
:100F0000D9FF05460098401C00900098B0F5A04F0E
:100F100001D0002DF2D03120FFF7CCFF08B1012421
:100F200000E00024204638BD01460020C34A106876
:100F300020F0F80040EAC10010607047C349086023
:100F400070470021BD4A703211701170012802D023
:100F500004280AD104E00121B84A7032117005E07A
:100F60000521B64A7032117000E000BF00BF704723
:100F7000B7490860704770B5049C41EA82150126A4
:100F8000C6EB530645EA0645054345EA0465AB4E04
:100F9000361D356070BDAD4908667047820142EA72
:100FA0000172A64B84331A607047A849886670475F
:100FB00010B5830143EA016343EA02739F4C88340E
:100FC000236010BDA14908677047A049C8647047F5
:100FD00002460020994B0833186820F0EC6042EA82
:100FE00001031843954B08331860704702460020F0
:100FF000924B0833186820F0784042EA0103184306
:101000008E4B083318607047014600208B4A083227
:10101000106820F0030008431060704787480830CC
:10102000006800F00C00704701460020834A083237
:10103000106820F0F000084310607047014600205F
:101040007E4A0832106820F4E05008431060704770
:1010500001460020794A0832106820F4604040EAD6
:10106000C10010607047F0B5002100220024022565
:1010700000260223714F08373F6807F00C0121B1A9
:10108000042905D0082937D105E0724F076036E002
:10109000714F076033E0694F3F1D3F68C7F38056CB
:1010A000664F3F1D3F6807F03F036EB16A4FB7FBC5
:1010B000F3F7DFF888C10CF1040CDCF800C0CCF3C6
:1010C000881C07FB0CF40CE0624FB7FBF3F7DFF86A
:1010D0006CC10CF1040CDCF800C0CCF3881C07FBDD
:1010E0000CF4564F3F1D3F68C7F301477F1C7D003E
:1010F000B4FBF5F7076002E0564F076000BF00BF82
:101100004E4F08373F6807F0F0010909534F7A5CEA
:101110000768D7404760494F08373F6807F4E051F8
:10112000890A4E4F7A5C4768D7408760434F08373B
:101130003F6807F46041490B484F7A5C4768D740E5
:10114000C760F0BD002100F44072B2F5407F0AD1C3
:101150003A4A0832116821F4F811414A0240114319
:10116000364A08321160354A70321268C0F30B03F8
:101170001A43324B70331A6070473549443908605E
:1011800070473349403908607047364908607047F6
:1011900001460020294A8C32106820F01F004A1EA8
:1011A0001043264A8C321060704701460020234AC3
:1011B0008C32106820F4F8504A1E40EA02201F4A80
:1011C0008C3210607047014600201C4A8C32106837
:1011D00020F4401008431060704701460020174A71
:1011E0008C32106820F440000843106070470146BC
:1011F0000020124A8C32106820F4403008431060FE
:10120000704719490860704739B10C4A303212688A
:1012100002430A4B30331A6006E0084A3032126843
:101220008243064B30331A607047F9B1034A3432B7
:1012300012680243014B34331A601CE0003802404C
:10124000FFFFF6EA10300024003000200000474283
:10125000800E47420024F40000127A00140000209F
:10126000FFFCFF0F5C014742E01147428F4A1268C2
:1012700082438E4B1A60704739B18C4A121D126836
:1012800002438A4B1B1D1A6006E0884A121D126831
:101290008243864B1B1D1A60704739B1834A0C325A
:1012A00012680243814B0C331A6006E07F4A0C320D
:1012B000126882437D4B0C331A60704739B17B4A08
:1012C000103212680243794B10331A6006E0774AF5
:1012D000103212688243754B10331A60704739B16F
:1012E000724A243A12680243704B243B1A6006E0AB
:1012F0006E4A243A126882436C4B243B1A60704752
:1013000039B16A4A203A12680243684B203B1A609E
:1013100006E0664A203A12688243644B203B1A601A
:10132000704739B1614A1C3A126802435F4B1C3B5B
:101330001A6006E05D4A1C3A126882435B4B1C3B14
:101340001A60704739B1594A143A12680243574B30
:10135000143B1A6006E0554A143A12688243534B14
:10136000143B1A60704739B1504A103A1268024370
:101370004E4B103B1A6006E04C4A103A126882430A
:101380004A4B103B1A60704739B1484A1C32126808
:101390000243464B1C331A6006E0444A1C32126872
:1013A0008243424B1C331A60704739B13F4A2032A6
:1013B000126802433D4B20331A6006E03B4A20325C
:1013C00012688243394B20331A60704739B1374A6B
:1013D000243212680243354B24331A6006E0334A44
:1013E000243212688243314B24331A60704739B17A
:1013F0002E4A2C32126802432C4B2C331A6006E022
:101400002A4A2C3212688243284B2C331A607047C8
:1014100039B1264A303212680243244B30331A6005
:1014200006E0224A303212688243204B30331A6081
:101430007047012808D11D493C31096841F0080175
:101440001A4A3C32116007E018493C31096821F022
:101450000801164A3C321160704739B1134A273AE5
:1014600012780243114B273B1A7006E00F4A273AC5
:10147000127882430D4B273B1A7070470B4840305F
:10148000006840F0807009494031086070470146AB
:101490000020064A283A12680A400AB1012000E0FA
:1014A00000207047014926390870704734380240DF
:1014B00010B50446FA48844208D101211020FFF7F4
:1014C00052FF00211020FFF74EFF57E0F5488442FD
:1014D00009D101214804FFF735FF00214FF4003006
:1014E000FFF730FF4AE0F048844209D10121880427
:1014F000FFF728FF00214FF48020FFF723FF3DE096
:10150000EA48844209D10121C804FFF71BFF0021EA
:101510004FF40020FFF716FF30E0E548844209D180
:1015200001210805FFF70EFF00214FF48010FFF79F
:1015300009FF23E0DF48844208D101212020FFF782
:1015400012FF00212020FFF70EFF17E0DA48844247
:1015500009D101218807FFF7F5FE00214FF08040F7
:10156000FFF7F0FE0AE0D548844207D1012140058B
:10157000FFF7E8FE00216005FFF7E4FE10BD2DE94E
:10158000FF4705460E460024A14600BFA046B0898D
:1015900000B100BF2C8A24F44054F08804432C820C
:1015A000AC8941F20C608443B08831890843718969
:1015B00008430443AC81AC8A24F44074B0890443EA
:1015C000AC826846FFF74FFDB548854202D0B94866
:1015D000854202D1DDF80C9001E0DDF80890A88981
:1015E00000F4004040B109EBC90000EB091031687C
:1015F0004900B0FBF1F707E009EBC90000EB091067
:1016000031688900B0FBF1F76420B7FBF0F004010A
:101610002009642101FB1078A88900F4004040B142
:10162000322000EBC800B0FBF1F000F007000443EB
:1016300008E0322000EB08106421B0FBF1F000F06C
:101640000F0004432C81BDE8FF874FF41651016061
:1016500000218180C18001810C2141810021818193
:10166000704710B502460020108A20F470600B8885
:101670004C8823438C882343CC882343184310820F
:1016800010BD0021018041808180C180704721B15F
:10169000828942F40052828104E082894DF6FF7310
:1016A0001A4082817047028B02F47F420283028BD0
:1016B0000A430283704721B1828942F40042828149
:1016C00003E08289C2F30E028281704721B1828ACF
:1016D00042F40062828204E0828A4FF2FF731A4071
:1016E00082827047C1F30802828070470146888871
:1016F000C0F308007047028A4FF6F0731A40028266
:10170000028A0A430282704721B1828942F00202B2
:10171000828104E082894FF6FD731A40828170470E
:1017200082894FF2FF731A40828182890A43828143
:101730007047028A4FF6DF731A400282028A0A4318
:101740000282704721B1028A42F48042028204E0A0
:10175000028A4BF6FF731A4002827047818941F07A
:1017600001018181704721B1828A42F008028282A0
:1017700004E0828A4FF6F7731A4082827047028B28
:10178000D2B20283028B42EA01220283704721B166
:10179000828A42F02002828204E0828A4FF6DF735E
:1017A0001A408282704721B1828A42F010028282FE
:1017B00004E0828A4FF6EF731A4082827047828A71
:1017C0004FF6FB731A408282828A0A4382827047F4
:1017D00021B1828A42F00202828204E0828A4FF6BC
:1017E000FD731A40828270471AB1838A0B43838249
:1017F00002E0838A8B4383827047F0B5034600245E
:1018000000260025002040F66A17B94200D100BF2B
:101810001846C1F3421401F01F06012707FA06F526
:10182000012C01D10C3004E0022C01D1103000E079
:1018300014301AB107682F43076002E00768AF430E
:101840000760F0BD02460020B1F5007F00D100BF67
:1018500013880B400BB1012000E00020704701F419
:101860000072B2F5007F00D100BFCA43028070470A
:1018700070B50246002400230025002040F66A16B9
:10188000B14200D100BFC1F3421501F01F03012690
:1018900006FA03F3012D13D19689334017E00000B7
:1018A000001001400044004000480040004C00404F
:1018B000005000400014014000780040007C0040CF
:1018C000022D02D1168A334001E0968A33400C1271
:1018D000012606FA04F41688344013B10CB1012035
:1018E00000E0002070BD10B50022002340F66A140D
:1018F000A14200D100BF0A1201249440A3B2DC43EC
:10190000048010BD00BF704700BF424A128802F039
:101910004002002AF9D0C2B23E4B9A80704710B5FF
:1019200086B0044601210846FFF76EFC0121102015
:10193000FFF7C4FC072209213748FFF752FA0722B4
:101940000A213548FFF74DFA4FF4C0600490022099
:101950008DF814008DF8150000208DF81600012078
:101960008DF8170004A92C48FFF7B0F90094002067
:10197000ADF80400ADF80600ADF80800ADF80C00B5
:101980000C20ADF80A0069462248FFF7F8FD012156
:101990002048FFF77CFE06B010BD10B540F225517F
:1019A0001C48FFF765FF10B31A48FFF79FFEC4B24B
:1019B0001A48008800F40040C8B91848008800F4AC
:1019C000804060B10A2C03D000201449088020E038
:1019D0001248008840F400401049088019E00D2C9E
:1019E00006D10E48008840F480400C49088010E081
:1019F0000A480088C0F30D0009490C5407480088C4
:101A0000401C0649088008460088C72801DD0020E0
:101A1000088010BD00100140000002402800002096
:101A200050000020F0B5E04A00250024002320E00B
:101A3000B1FBF2F6303606F0FF0C2E466D1C00F8B6
:101A400006C0B1FBF2F602FB16110A26B2FBF6F253
:101A50006E1E865D302E01D1012600E000260CB9F5
:101A6000012700E000273E400EB1002500E0641C85
:101A70005B1C0A2BDCD3F0BD70B502460C4600217E
:101A8000002500231078302843D15078782802D0E0
:101A9000507858283DD1907808B9002070BD0221B7
:101AA00030E0505C10B9236001252DE0505C4128E6
:101AB00002DB505C46280BDD505C612802DB505C89
:101AC000662805DD505C302819DB505C392816DCAF
:101AD000505C302805DB505C392802DC505C303823
:101AE0000AE0505C412805DB505C462802DC505C73
:101AF000373801E0505C573800EB031301E0002554
:101B000002E0491C0B29CCD300BF0B2934D300259C
:101B100032E000212AE0505C10B92360012527E063
:101B2000505C6B2802D0505C4B2804D119B19B0249
:101B3000236001251CE0505C6D2802D0505C4D28CC
:101B400004D119B11B052360012511E0505C302838
:101B500009DB505C392806DC505C303803EB830627
:101B600000EB460301E0002502E0491C0B29D2D31B
:101B700000BF0B2900D3002528468FE710B5044687
:101B800021468A48FFF7AEFD00BF80218748FFF756
:101B900059FE0028F9D010BD10B5044603E02078A6
:101BA000FFF7ECFF641C20780028F8D110BD10B5B9
:101BB000044620217D48FFF745FE20B17B48808800
:101BC0002070012010BD0020FCE708B50020009027
:101BD00004E06846FFF7EBFF00B100E0F9E700BF63
:101BE0009DF8000008BD70B506460024002500BF22
:101BF000FFF7EBFF05460A2D04D1601E305C0D286F
:101C000000D116E0082D02D104B1641E10E0802C32
:101C100004D367A0FFF7C0FF002409E0202D01DBFB
:101C20007E2D01DD0D2D02D12046641C355400BFF0
:101C3000DEE700BF63A0FFF7AFFF0021601E315455
:101C400070BD1FB5044623E06846FFF7CCFF9DF842
:101C5000000000B91CE09DF80000612803D09DF849
:101C60000000412808D19DF8010028B956A0FFF7CF
:101C700093FF002004B010BD21466846FFF7FCFE2C
:101C800018B956A0FFF788FF01E00120F2E700BF76
:101C9000DAE701B500200099C1F30A021AB1012266
:101CA00002EBD12000E0C80A08BDF3B581B00D46B3
:101CB000002400260020009009270198FFF7E9FF83
:101CC0000646FEF771FC00BF15E049494FF400627B
:101CD00002FB04100221FEF7BBFC0746012D09D1CF
:101CE000611C6846FFF79EFE6846FFF755FF41A05E
:101CF000FFF752FF641CB44201D2092FE5D0FEF772
:101D000060FCB44201D1092F01D00020FEBD0120AA
:101D1000FCE72DE9F04105460E4609272C463246E0
:101D2000294635A001F074F8FEF73EFC3A4884429B
:101D300024D221E0204600F001FC401CD8B120460E
:101D400000F0FFFB8046214634A001F061F802213B
:101D50004046FEF77DFC0746092F07D03A4641462C
:101D600034A001F055F80020BDE8F081204600F0D5
:101D700022FC044600E0241DB442DBD3FEF721FC24
:101D800036A001F045F80120EEE7002109E000222D
:101D900001E0531C9AB241F2B0239A42F9DB4B1C8A
:101DA00099B28142F3DB704700CA9A3B00100140B0
:101DB00020436D642073697A65206F7665722E0DFD
:101DC0000A0000000D0A000020557365722043616F
:101DD0006E63656C6C65642E0D0A0000204572729E
:101DE0006F722C20496E7075742E0D0A0000000071
:101DF00000000108400000004572617365207374A3
:101E00006172743A2030782530385820746F203051
:101E100078253038580A00000000FF1F45726173B2
:101E2000696E6720736563746F723A20307825306D
:101E300038780A004572617365206572726F72208E
:101E4000617420736563746F722025642C20737431
:101E5000617475733A2025640A000000457261734D
:101E60006520646F6E652E0A0000000010B509241D
:101E7000FEF763FE00F00300D549086008460068DD
:101E8000002831D1FEF779FD00210320FEF78BFDFC
:101E9000FEF73EFE0446092C02D0CEA0FFF77CFEE2
:101EA000FEF778FDFEF749FE00F00300C849086020
:101EB00008460068032813D1CEA0FFF76DFE00BFCF
:101EC000BFF34F8FD248006800F4E060D149084367
:101ED000001DCF490860BFF34F8F00BF00BFFEE772
:101EE000BCA0FFF759FE05E00020CB490860CBA05D
:101EF000FFF752FE10BD01B5FEF756FB0122694601
:101F0000CE4800F087FBFEF75CFB08BD10B5CB4860
:101F100000F014FB80B210BD0FB54FF4E13000901B
:101F20000020ADF80400ADF80600ADF80800ADF8EB
:101F30000C000C20ADF80A000FBD10B54FF4E130D5
:101F4000FFF7EDFC10BD10B5BD480068BD49084065
:101F5000B0F1005F14D1BCA0FFF71EFEB848406886
:101F6000BE49086008460068BD490860B449086871
:101F700080F3088800BFBA4800688047002010BD81
:101F8000B8A0FFF709FE4FF0FF30F8E770B5AC4896
:101F900004684568B9A0FFF7FFFDC1A0FFF7FCFD8D
:101FA0002146C9A000F034FFC9A0FFF7F5FD214686
:101FB000C5A000F02DFFA3482040B0F1005F04D180
:101FC000CFA0FFF7E9FD002070BDD3A0FFF7E4FD2F
:101FD0004FF0FF30F8E700B5A1B0802101A801F073
:101FE00094F8D6480068A0F10060000BD44908605E
:101FF000084600683E2808D208460178012088403B
:10200000401EC043CF49086003E04FF00040CD4977
:102010000860FEF792FDCB4909680840C949096884
:10202000884203D001207C49086002E000207A4900
:10203000086058E0C4A0FFF7AFFDCBA0FFF7ACFDF0
:10204000CCA0FFF7A9FDCEA0FFF7A6FDCFA0FFF71C
:10205000A3FDD0A0FFF7A0FD6F48006810B1D0A08D
:10206000FFF79AFD01A8FFF7BEFDD0A101A801F07E
:1020700073F828B94EF6EE60FFF73DFF21B000BDC2
:10208000CCA101A801F068F820B94DF6DD50FFF7AA
:1020900032FFF3E7C9A101A801F05EF820B94CF6C0
:1020A000CC40FFF728FFE9E7C6A101A801F054F8EA
:1020B00020B94FF6FF70FFF71EFF14E0C3A101A87F
:1020C00001F04AF820B945F65A20FFF714FFD5E78A
:1020D000C0A101A801F040F810B9FFF7C7FE02E067
:1020E000BEA0FFF759FDA5E73EB500200090019086
:1020F00002900024BE4800F096FB0446002C19DD37
:10210000BCA0FFF749FDC0A0FFF746FDC048FFF7A0
:1021100043FD21466846FFF785FCBEA0FFF73CFD66
:102120006846FFF739FDBEA0FFF736FDFFF72EFF2B
:1021300000203EBD601C28B9BCA0FFF72DFD4FF06C
:10214000FF30F6E7A01C28B9BDA0FFF725FD6FF012
:102150000100EEE7E01C28B9BEA0FFF71DFD6FF0FF
:102160000200E6E7C1A0FFF717FD6FF00300E0E70C
:1021700010B50024C2A0FFF70FFDFFF726FD43288E
:1021800013D14FF47022CCA12D4800F0FFFC04467F
:102190002CB1CFA0FFF700FD4FF0FF3010BDD7A04E
:1021A000FFF7FAFC6FF00100F8E7DDA0FFF7F4FCA1
:1021B0000020F3E708B500200090DF492048FFF732
:1021C000A8FD012801D1002008BD4FF0FF30FBE73A
:1021D000400000204572726F723A20756E70726F07
:1021E00074656374696F6E206661696C65642E0D39
:1021F0000A00000057726974652050726F7465633D
:1022000074696F6E20436C6F73652E0D0A000000B9
:102210000CED00E00000FA053C000020466C617304
:1022200068206E6F742077726974652070726F74A5
:1022300065637465642E0D0A00000000004000080C
:10224000000001080000FE2F0D0A2052756E207458
:102250006F206170702E0D0A000000003000002019
:102260002C0000200D0A2052756E20746F206170C2
:1022700070206572726F722E0D0A00000D0A5B44A9
:10228000454255475D20436865636B696E67204131
:1022900070706C69636174696F6E2E2E2E0D0A006A
:1022A0005B44454255475D204170706C69636174C1
:1022B000696F6E41646472657373204D535020568C
:1022C000616C75653A200000253038580000000028
:1022D0000D0A5B44454255475D204170706C69634F
:1022E0006174696F6E4164647265737320526573C3
:1022F00065745F48616E646C65723A20000000008E
:102300000D0A61626C6520746F2052756E20746FC7
:10231000206170702E0D0A000D0A52756E20746FC8
:1023200020617070206572726F723A20496E76611A
:102330006C6964204D53502E0D0A000044000020AB
:1023400034000020380000200D0A20494150204D63
:1023500061696E204D656E7520285620302E322E14
:1023600030290D0A00000000207570646174650D4D
:102370000A0000002075706C6F61640D0A00000097
:102380002065726173650D0A00000000206D656EA6
:10239000750D0A002072756E6170700D0A000000E4
:1023A0002064697377700D0A000000007570646125
:1023B0007465000075706C6F616400006572617314
:1023C000650000006D656E750000000072756E613D
:1023D00070700000646973777000000020496E76A9
:1023E000616C696420434D4420210D0A0000000007
:1023F000180100200D0A20557064617465204F7625
:102400006572210D0A000000204E616D653A2000C2
:10241000180500200D0A2053697A653A2000000053
:102420002042797465732E0D0A0000000D0A2049C0
:102430006D61676520546F6F20426967210D0A0046
:102440000D0A20557064617465206661696C65646D
:10245000210D0A000D0A2041626F727465642062CA
:102460007920757365722E0D0A0000002052656395
:10247000656976652046696C65642E0D0A0000006A
:102480000A0A0D53656C656374205265636569764D
:10249000652046696C65202E2E2E2028707265738B
:1024A0007320616E79206B657920746F2061626F93
:1024B0007274290A0D00000055706C6F61646564C8
:1024C000466C617368496D6167652E62696E0000D4
:1024D0000A0D4572726F72204F63637572656420D6
:1024E0007768696C65205472616E736D6974746984
:1024F0006E672046696C650A0D0000000A0D46698A
:102500006C6520547261736D6974746564205375D1
:10251000636365737366756C6C79200A0D00000047
:102520000D0A0A41626F72746564206279207573C6
:1025300065722E0A0D0000000000020801460868BE
:10254000704701466048814201D2002070475F48D1
:10255000814201D20820F9E75D48814201D2102072
:10256000F4E75C48814201D21820EFE75A488142E3
:1025700001D22020EAE75948814201D22820E5E72C
:102580005748814201D23020E0E75648814201D2CB
:102590003820DBE75448814201D24020D6E7534837
:1025A000814201D24820D1E75148814201D25020D6
:1025B000CCE75820CAE701464348814200D2704721
:1025C0004248814200D2FAE74148814200D2F6E710
:1025D0004048814200D2F2E73F48814200D2EEE714
:1025E0003E48814200D2EAE73D48814200D2E6E718
:1025F0003C48814200D2E2E73B48814200D2DEE71C
:102600003A48814200D2DAE73948814200D2D6E71F
:102610003748D4E72DE9F04704460E4617464FF0F9
:1026200009080025A946B4F1006F02D304F00300A5
:1026300008B1BDE8F087FDF7B7FF0020FDF797FF71
:10264000254604EB87092B48854215D211E0284620
:10265000FFF774FF401C58B12846FFF772FF82460F
:102660000221FDF7F5FF8046B8F1090F01D002E025
:102670002D1D4D45EBD300BFB8F1090F0CD108E07B
:1026800020463168FEF7FDF8092800D003E0241D3C
:10269000361D4C45F4D300BF0120FDF768FFFDF760
:1026A00090FF00BFC5E730B503460C461546002233
:1026B00006E01846FFF742FF44F822001B1D521C9B
:1026C000AA42F6D330BD0000004000080080000898
:1026D00000C0000800000108000002080000040813
:1026E000000006080000080800000A0800000C08A6
:1026F00000000E080000FF1F70B505460C4606E0FE
:102700002846FFF754FA012801D1002070BD201E91
:10271000A4F10104F4D1401EF8E710B504462046A8
:10272000FFF72CFA002010BD2DE9F84305460E46B0
:1027300090460020306041466846FFF7DDFF18B143
:102740004FF0FF30BDE8F8839DF80000A2281CD0B0
:1027500010DC182831D006DC01281DD0022824D036
:1027600004283ED127E0412838D0612837D0A1285D
:1027700037D108E0A338072833D2DFE800F0080A91
:102780000C0F1215190008242EE010242CE0202430
:102790002AE0402428E000BF802425E04FF4807424
:1027A00022E04FF400741FE000BF4FF480641BE090
:1027B0004FF4006418E00020C4E741466846FFF784
:1027C0009BFF40B99DF80000182804D14FF0FF305E
:1027D00030600020B6E74FF0FF30B3E700BF0120C4
:1027E000B0E74FF0FF30ADE700BF9DF80000287064
:1027F000012709E0E8194146FFF77EFF10B14FF0CD
:10280000FF309FE7781C87B2601D8742F2DB697852
:10281000A87880F0FF00814202D04FF0FF3091E7AE
:10282000346000208EE72DE9F04FADF22C4D0646C6
:1028300000200190F848F94908604FF0000A4FF075
:1028400000090020029000BF4FF000080020039014
:10285000374600BF4FF4801204A909A8FFF764FFB0
:1028600010B1012874D197E04FF000090498B0F13D
:10287000FF3F01D070B907E00620FFF74EFF0020B0
:102880000DF22C4DBDE8F08F0620FFF746FF01202A
:1028900003907FE09DF8250008F0FF01884203D0F7
:1028A0001520FFF73AFF75E0B8F1000F51D19DF800
:1028B0002700002845D000250DF1270405E014F875
:1028C000012B28466D1CD6490A54207808B1FF2DEB
:1028D000F5DD002228466D1CD1490A540025641CF0
:1028E00005E014F8012B28466D1C05A90A54207830
:1028F000202801D0102DF4DB002228466D1C05A9EC
:102900000A5401A905A8FFF7B7F80198B0F5801F90
:1029100008DB1820FFF701FF1820FFF7FEFE4FF03D
:10292000FF30ADE7BD480068019A8118BB480068D8
:10293000FFF7EFF90620FFF7F0FE4320FFF7EDFE6B
:1029400024E00620FFF7E9FE01200390824621E003
:102950002BE00DF127013846049A00F091FBB148B5
:102960000660DDF810B04FEAEB700BEB9070821050
:102970003946AA480068FFF74DFEA8480068049948
:102980000844A64908600620FFF7C7FE08F10108C1
:102990000120029000BF1CE01820FFF7BEFE1820A7
:1029A000FFF7BBFE6FF002006AE70298002801DD26
:1029B00009F10109B9F1050F07DD1820FFF7ADFE98
:1029C0001820FFF7AAFE00205AE74320FFF7A5FED4
:1029D00000BF00BF039800283FF43CAF00BF00BF1A
:1029E000BAF1000F3FF430AF00BF00BF019847E7D6
:1029F0000146002070472DE9FE4305460F469046EC
:102A00000120287000206870FF20A870002404E0D6
:102A1000395DE01C2954601C84B2385D08B1FF2C7C
:102A2000F6DD0021E01C29546846D8F80010FEF7B6
:102A3000F9FF0026201D84B208E03046711C8EB2DA
:102A40001DF800202046611C8CB22A541DF8060097
:102A50000028F2D1264603E00020A855701C86B25B
:102A6000832EF9DBBDE8FE83F0B5074614461D460C
:102A7000B5F5806F02D34FF4806C01E04FF0800C0D
:102A800063469D4201D2AC4600E09C461FFA8CF2A0
:102A9000B3F5806F04D14FF0020C81F800C003E061
:102AA0004FF0010C81F800C04C706FEA040C81F803
:102AB00002C03E46032007E016F801CB01F800C033
:102AC00000F1010C1FFA8CF002F1030C6045F3DBFE
:102AD0009A420EDC1FFA8CF007E04FF01A0C01F856
:102AE00000C000F1010C1FFA8CF003F1030C6045EB
:102AF000F3DBF0BD10B503460C46194644F4807272
:102B000000BF4900520002F4807000B1491C01F47A
:102B1000803010B141F22100414002F480300028A1
:102B2000EFD088B210BDF0B505460E460024AF19AF
:102B300005E015F8011BA0B2FFF7DCFF0446BD421B
:102B4000F7D3A0B20021FFF7D5FF044620460021AD
:102B5000FFF7D0FF04462046F0BD30B50246002303
:102B6000541802E012F8015B2B44A242FAD3D8B207
:102B700030BD70B505460E46002404E0285DFFF721
:102B8000CCFD601C84B2B442F8DB70BD2DE9F74F78
:102B9000ADF5A36D002001908146002480460026FB
:102BA00006E0DDF81C05805D04A98855701CC6B2DE
:102BB000FF2EF6DB012001900DF5A46204A944A8C4
:102BC000FFF719FF00BF832144A8FFF7D2FF019848
:102BD00060B180210DF21310FFF7A5FF0546281202
:102BE000FFF79BFDE8B2FFF798FD08E080210DF2AA
:102BF0001310FFF7B2FF03900398FFF78EFD42F228
:102C0000107102A8FFF778FD70B99DF8080006283A
:102C10000BD14FF0010808E000000108440000203B
:102C2000180500204C000020641CB8F1000F01D1F1
:102C30000A2CC8D30A2C04D3E0B20DF2245DBDE8FF
:102C4000F08FDDF818B5DDF820954FF0010A59E056
:102C50000AF0FF024B4644A95846FFF705FF4FF024
:102C6000000800208DF80800002400BFB9F5806F2F
:102C700002D34FF4806700E08027F81C81B244A89B
:102C8000FFF777FF019860B139460DF21310FFF797
:102C90004AFF05462812FFF740FDE8B2FFF73DFD69
:102CA00008E039460DF21310FFF757FF0390039821
:102CB000FFF733FD544902A8FFF71EFDC0B99DF888
:102CC0000800062814D14FF00108B9450CD9BB44BF
:102CD000A9EB0709BAF5707F01D1FF20ADE70AF132
:102CE00001001FFA80FA04E0BB444FF0000900E045
:102CF000641CB8F1000F01D10A2CB7D30A2C01D300
:102D0000E0B29AE7B9F1000FA2D14FF0000800201D
:102D10008DF80800002400BF0420FFF7FEFC42F2FB
:102D2000107102A8FFF7E8FC30B99DF808000628EA
:102D300002D14FF0010800E0641CB8F1000F01D18E
:102D40000A2CE9D30A2C01D3E0B276E74FF0000851
:102D500000208DF80800002401208DF810010020CB
:102D60008DF81101FF208DF81201032604E00020E8
:102D700044A98855701CC6B2832EF8DB00BF83219E
:102D800044A8FFF7F6FE80210DF21310FFF7CBFEEB
:102D900005462812FFF7C1FCE8B2FFF7BEFC42F27D
:102DA000107102A8FFF7A8FC30B99DF808000628AA
:102DB00003D14FF0010800E0641CB8F1000F01D10D
:102DC0000A2CDCD30A2C01D3E0B236E700BF042082
:102DD000FFF7A3FC42F2107102A8FFF78DFC30B997
:102DE0009DF80800062802D14FF0010800E0641C9D
:102DF000B8F1000F01D10A2CE9D30A2C01D3E0B2BB
:102E00001BE7002019E70000A086010070470000C2
:102E10000FB4044910B503AA029800F03BFA10BCA5
:102E20005DF814FB2400002070B504468569006835
:102E3000C10601D5302600E02026C00707D070BDAE
:102E4000D4E9012130469047206A401C20626D1E63
:102E5000F6D570BD70B5044685690078C00707D106
:102E600070BDD4E9012120209047206A401C2062D7
:102E70006D1EF6D570BD00002DE9F0410646002418
:102E800010687529314616A510D0AFF300800028D0
:102E900002DA404213A507E031688A0701D512A57E
:102EA00002E0490704D511A5012401E0AFF3008039
:102EB00000210A2206F1240709E0B0FBF2FCB0FB76
:102EC000F2F302FB1C00303078541846491C0028ED
:102ED000F3D123462A463046BDE8F04100F080B9E0
:102EE000000000002D0000002B000000200000006A
:102EF00070B504460D4621461068AFF30080218866
:102F0000090502D50F4A7A4402E00E4A7A440E328D
:102F1000002104F1240305E000F00F060009965D8E
:102F20005E54491C0028F7D120780023000704D5FF
:102F3000702D02D009B1022311322046BDE8704045
:102F400000F04EB9C60400002DE9F05F8946044642
:102F50004FF0000ADFF824B1FB44C0F820A020465F
:102F6000E168884700287DD0252806D0D4E90121D2
:102F70009047206A401C2062F1E700255F4620460A
:102F8000E16888472028064607DB312E05D2B819AC
:102F900010F8200C08B10543F1E7A80701D525F08A
:102FA0000405C4F81CA00027C4F818A02A2E09D0D4
:102FB000304600F001FA38B304EB8708303EC8F819
:102FC000186019E059F8041B204604EB8702916150
:102FD000E1688847012F064618D1E069002820DA09
:102FE00025F020051DE0D8F8180000EB800006EB66
:102FF00040003038C8F818002046E1688847064687
:1030000000F0DAF90028EED1012F0AD02E2E08D1D7
:103010002046E16888477F1C0646022F45F02005C0
:10302000C4DBA069002803DA404245F00105A06135
:10303000E80701D025F01005A6B1A6F14100192836
:1030400002D8203645F400654A46314620462560C0
:103050004D46FDF7D3F860B1012807D0ED1D25F0EE
:10306000070000E007E000F1080978E705F104092E
:1030700075E730467AE7206ABDE8F09F9C040000BF
:10308000032A40F2308010F0030C00F0158011F894
:10309000013BBCF1020F624498BF11F801CB00F86C
:1030A000013B38BF11F8013BA2F1040298BF00F8C0
:1030B00001CB38BF00F8013B11F0030300F0FC80A6
:1030C000083AC0F0088051F8043B083A51F804CBA4
:1030D000A0E80810F5E7121D5CBF51F8043B40F86A
:1030E000043BAFF30080D20724BF11F8013B11F875
:1030F00001CB48BF11F8012B24BF00F8013B00F8B9
:1031000001CB48BF00F8012B70474FF0000200B51B
:10311000134694469646203922BFA0E80C50A0E8FA
:103120000C50B1F12001BFF4F7AF090728BFA0E8A8
:103130000C5048BF0CC05DF804EB890028BF40F874
:10314000042B08BF704748BF20F8022B11F0804FB6
:1031500018BF00F8012B70474FF0013C50F8042BCA
:1031600051F8043B9A4221D1A2EB0C03934313EA9A
:10317000CC1317D150F8042B51F8043B9A4215D1C7
:10318000A2EB0C03934313EACC130BD150F8042B9E
:1031900051F8043B9A4209D1A2EB0C03934313EA82
:1031A000CC13DBD04FF00000704700BFD01A01BA3B
:1031B000B1FA81F101F0180122FA01F0CB40C1F11E
:1031C0002001DBB2C0B2C01A2CFA01F3D11A91432C
:1031D00011EAC311E6D170477047704770477047D6
:1031E0002DE9F0470D4699469246044600F1240821
:1031F0000168880604D5E06921F01001216000E033
:103200000120A84201DD471B00E00027A1697A19CF
:1032100002EB0900081AA0612078C00602D42046FB
:10322000FFF702FE002608E0D4E901211AF80600A3
:103230009047206A401C761C20624E45F4DB2078C3
:10324000C0060AD52046FFF7EFFD06E0D4E90121CC
:1032500030209047206A401C2062381EA7F10107E9
:10326000F4DC07E0D4E9012118F805009047206A52
:10327000401C2062281EA5F10105F3DC2046FFF763
:10328000E9FD2078000602D50220BDE8F087012084
:10329000FBE70000074B70B50D467B4400F043F898
:1032A0000446284600F052F810B14FF0FF3070BDD0
:1032B000204670BD6BE6FFFF10B5203AC0F00B80D2
:1032C000B1E81850203AA0E81850B1E81850A0E82A
:1032D0001850BFF4F5AF5FEA027C24BFB1E8185084
:1032E000A0E8185044BF18C918C0BDE810405FEAF4
:1032F000827C24BF51F8043B40F8043B08BF704770
:10330000D20728BF31F8023B48BF11F8012B28BF74
:1033100020F8023B48BF00F8012B704701694A1CA6
:1033200002610878704700B58FB0CDE90131002106
:10333000059105497944CDE9031011466846FFF728
:1033400003FE0FB000BD0000E5FFFFFF007B00F0B3
:1033500080007047754600F02BF8AE4605006946C0
:10336000534620F00700854618B020B5FDF7CCF88D
:10337000BDE820404FF000064FF000074FF0000876
:103380004FF0000B21F00701AC46ACE8C009ACE8F7
:10339000C009ACE8C009ACE8C0098D46704710B55B
:1033A0000446AFF300802046BDE81040FCF73DBF67
:1033B000004870471806002030380A2801D2012042
:1033C0007047002070474FF04070E1EE100A7047E0
:1033D000303132333435363738394142434445464B
:1033E0004030580030313233343536373839616245
:1033F0006364656640307800040000080000000047
:103400000000000200010000100000002C34000841
:103410000000002050000000C40100087C340008B7
:1034200050000020280C0000E0010008007A030A88
:103430000000000000000000010203040607080964
:10344000000000000102030401020304060708094A
:10345000000000000000000000000000000000006C
:10346000000000000000000000000000FF0F00004E
:0C3470000000010800080000000000003F
:040000050800018965
:00000001FF
