:020000040801F1
:10000000280800208D0A0108D1020108D302010846
:10001000D7020108DB020108DF020108000000002E
:10002000000000000000000000000000E3020108E2
:10003000E502010800000000E7020108E9020108EA
:10004000A70A0108A70A0108A70A0108A70A0108C8
:10005000A70A0108A70A0108A70A0108A70A0108B8
:10006000A70A0108A70A0108A70A0108A70A0108A8
:10007000A70A0108A70A0108A70A0108A70A010898
:10008000A70A0108A70A0108A70A0108A70A010888
:10009000A70A0108A70A0108A70A0108A70A010878
:1000A000A70A0108A70A0108A70A0108A70A010868
:1000B000A70A0108A70A0108A70A0108A70A010858
:1000C000A70A0108A70A0108A70A0108A70A010848
:1000D000A70A0108DF090108A70A0108A70A010801
:1000E000A70A0108A70A0108A70A0108A70A010828
:1000F000A70A0108A70A0108A70A0108A70A010818
:10010000A70A0108A70A0108A70A0108A70A010807
:10011000A70A0108A70A0108A70A0108A70A0108F7
:10012000A70A0108A70A0108A70A0108A70A0108E7
:10013000A70A0108A70A0108A70A0108A70A0108D7
:10014000A70A0108A70A0108A70A0108A70A0108C7
:10015000A70A0108A70A0108A70A0108A70A0108B7
:10016000A70A0108A70A0108A70A0108A70A0108A7
:10017000A70A0108A70A0108A70A0108A70A010897
:10018000A70A0108A70A010800F002F800F041F8E8
:100190000AA090E8000C82448344AAF10107DA45E2
:1001A00001D100F036F8AFF2090EBAE80F0013F0F3
:1001B000010F18BFFB1A43F001031847302000005D
:1001C00050200000103A24BF78C878C1FAD85207EE
:1001D00024BF30C830C144BF04680C6070470000C1
:1001E0000023002400250026103A28BF78C1FBD840
:1001F000520728BF30C148BF0B607047732901F018
:100200008387002070471FB501F0E2FF1FBD10B5C6
:1002100010BD01F0ABFF1146FFF7F5FF00F008F845
:1002200001F0C9FF03B4FFF7F2FF03BC00F078FB55
:100230001CB5002400254FF48031C80200F080FC7A
:100240004FF4A06000F042FCA82000F0E7FA4FF461
:10025000E13000F072FB00F0B5F900F0D3F928E0CE
:10026000002000F0EDF90446042C07D105221149C5
:10027000114800F062FA11A001F086FE012C08D1AD
:10028000052269460C4800F0A1FA69460DA001F06C
:100290007BFE681C85B20A2000F022FB142D08D1D9
:1002A0000A48006808B9012000E0002007490860FA
:1002B0000025D5E7DA21010804C0000877726974C7
:1002C00065000000726561643A257300A4824242B1
:1002D000704700BFFEE700BFFEE700BFFEE700BFBC
:1002E000FEE7704770477047704700000CB500206C
:1002F000019000907648006840F4803074490860AE
:1003000000BF7348006800F4003000900198401C62
:100310000190009818B90198B0F5A04FF1D16C4840
:10032000006800F4003010B10120009001E00020CE
:1003300000900098012846D165484030006840F0A0
:1003400080506349403108606248006840F4404092
:10035000604908605E48083000685D4908310860FF
:100360000846006840F4004008600846006840F411
:10037000A05008605848091F0860081F006840F036
:100380008070091F086000BF5148006800F00070CD
:100390000028F9D040F20570504908604C480830F8
:1003A000006820F003004A490831086008460068E8
:1003B00040F00200086000BF45480830006800F0C7
:1003C0000C000828F8D10CBD10B54548006840F471
:1003D0007000434908603E48006840F001003C4915
:1003E000086000203A4908310860394800683D49F2
:1003F0000840374908603C48091D0860081F00682C
:1004000020F48020091F0860002031490C31086069
:10041000FFF76CFF4FF0006031498039086010BD74
:1004200070B500200022022300240221284D083547
:100430002D6805F00C0020B1042806D0082834D11E
:1004400007E02A4D2A4E356033E02A4D284E3560AC
:100450002FE01F4D2D1D2D68C5F380541C4D2D1D03
:100460002D6805F03F0154B1224DB5FBF1F5184E52
:10047000361D3668C6F3881605FB06F209E01B4DEB
:10048000B5FBF1F5124E361D3668C6F3881605FB2E
:1004900006F20F4D2D1D2D68C5F301456D1C6B0037
:1004A000B2FBF3F5124E356003E0104D104E35608F
:1004B00000BF00BF064D08352D68C5F303150E4E6D
:1004C000705D0B4D2D68C540094E356070BD000054
:1004D000003802400070004008544007003C0240D1
:1004E00088ED00E0FFFFF6FE103000240024F40049
:1004F0000000002000127A000400002001B500F086
:10050000DDFC01226946214800F017F900F0E3FC08
:1005100008BD10B504461EA1204601F09FFD28B974
:100520004EF6EE60FFF7EAFF00F021F81AA1204630
:1005300001F094FD28B94CF6CC40FFF7DFFF00F046
:1005400016F817A1204601F089FD28B94FF6FF7073
:10055000FFF7D4FF00F00BF813A1204601F07EFD59
:1005600008B900F004F812A001F00EFD10BDBFF3B1
:100570004F8F1248006800F4E06011490843001DE5
:100580000E490860BFF34F8F00BFFEE70040000830
:1005900075706461746500006572617365000000C8
:1005A0006D656E750000000072756E617070000000
:1005B000D6B8C1EED3D0CEF30D0A00000CED00E0AA
:1005C0000000FA051CB50121202001F05DF94FF46F
:1005D000C060009001208DF8040000208DF8060016
:1005E00003208DF8050001208DF8070069460448B6
:1005F00000F062FB4FF4C061014800F0D9FB1CBD64
:10060000001402401CB50121112001F03DF9102019
:10061000009000208DF8040003208DF805000220D2
:100620008DF807006946234800F046FB0120009042
:1006300002208DF8070069461F4800F03DFB1CBDF5
:1006400010B5044614B101201C4908701B480078FD
:1006500000B31021174800F091FB012805D00121BB
:10066000154800F08BFB012814D10A2000F038F95E
:1006700000201249087010210E4800F07FFB01286D
:1006800000D110BD01210C4800F078FB01280ED1EB
:100690000420F6E71021074800F070FB38B901216B
:1006A000054800F06BFB10B90120044908700020D8
:1006B000E7E70000001002400000024014000020A4
:1006C00001460868704701464848814201D200202F
:1006D00070474748814201D20820F9E745488142E6
:1006E00001D21020F4E74448814201D21820EFE7FC
:1006F0004248814201D22020EAE74148814201D2AA
:100700002820E5E73F48814201D23020E0E73E481B
:10071000814201D23820DBE73C48814201D24020AF
:10072000D6E73B48814201D24820D1E7394881428F
:1007300001D25020CCE75820CAE72DE9F047044603
:100740000E4617464FF009080025A946B4F1006F80
:1007500002D304F0030008B1BDE8F08700F0AEFB5F
:10076000002000F08EFB254604EB87092A488542CD
:1007700015D211E02846FFF7A3FF401C58B12846C8
:10078000FFF7A1FF8246022100F0ECFB8046B8F1A2
:10079000090F01D002E02D1D4D45EBD300BFB8F18C
:1007A000090F0CD108E02046316800F0F4FC09285C
:1007B00000D003E0241D361D4C45F4D300BF0120BA
:1007C00000F05FFB00F087FB00BFC5E730B50346D4
:1007D0000C461546002206E01846FFF771FF44F864
:1007E00022001B1D521CAA42F6D330BD0040000857
:1007F0000080000800C00008000001080000020896
:1008000000000408000006080000080800000A08AC
:1008100000000C0800000E080000FF1F10B5044681
:100820006FF0040000F0A4F9E11704EB5171C1F37B
:10083000C701394A11701046007800EB4001C1EB46
:10084000C0104FF6FF7101EAC0003449088010BDA6
:100850000146314A12784A434FF0E0235A610022A0
:100860009A611A46126942F001021A6100BF4FF004
:10087000E022106900F001021AB100F48032002A6F
:10088000F5D04FF0E022126922F001024FF0E02390
:100890001A6100229A6170470146204A12884A4331
:1008A0004FF0E0235A6100229A611A46126942F021
:1008B00001021A6100BF4FF0E022106900F001024E
:1008C0001AB100F48032002AF5D04FF0E02212690C
:1008D00022F001024FF0E0231A6100229A61704772
:1008E00070B504464FF4077094FBF0F0C6B24FF4B5
:1008F000077094FBF0F100FB114085B205E04FF466
:100900000770FFF7C9FF701EC6B2002EF7D115B1F0
:100910002846FFF7C1FF70BD160000201800002018
:1009200000BF704700BF554A128802F04002002AFB
:10093000F9D0C2B2514B9A80704710B588B00446C6
:100940000121084600F0A0FF0121102000F0F6FF71
:10095000072209214A4800F03AFA07220A214848AA
:1009600000F035FA4FF4C060069002208DF81C00AC
:100970008DF81D0000208DF81E0001208DF81F004D
:1009800006A93F4800F098F902940020ADF80C0049
:10099000ADF80E00ADF81000ADF814000C20ADF865
:1009A000120002A9354801F02AF90121334801F06B
:1009B000AEF9012240F22551304801F05EFA2520BF
:1009C0008DF8040003208DF805008DF80600012045
:1009D0008DF8070001A800F07EF808B010BD10B532
:1009E00040F22551254801F083FA002845D02348DC
:1009F00001F0BCF9C4B22348008800F4004000288C
:100A00003BD10A2C1BD11F48008800F4804090B1D4
:100A10001C48008840F400401A49088000200988DA
:100A2000C1F30D01184A50541046FFF772FD002023
:100A30001449088021E00020124908801DE00D2C97
:100A400006D11048008840F480400E49088014E028
:100A50000C480088C0F30D00C7280BDA094800884D
:100A6000C0F30D0008490C5406480088401C054995
:100A7000088002E000200349088010BD00100140FA
:100A80000000024022000020FC00002009488047AE
:100A900009480047FEE7FEE7FEE7FEE7FEE7FEE760
:100AA000FEE7FEE7FEE7FEE704480549054A064B78
:100AB00070470000C90301088901010828020020CD
:100AC000280800202804002028040020324901437F
:100AD000324A1160704770B5002100230F22C4789C
:100AE0001CB32E4C246804F4E064C4F5E064C4F341
:100AF0000721C1F10404E3B20A4144789C40E1B209
:100B00008478144021430C07210E254C057861554B
:100B1000047804F01F050124AC4005786D11AD0088
:100B200005F1E025C5F8004109E0047804F01F054F
:100B30000124AC401B4D0678761145F8264070BD67
:100B4000194A0A400243154B1B1F1A60704739B1FE
:100B5000124A121D12680243104B1B1D1A6006E058
:100B60000E4A121D126882430C4B1B1D1A607047FF
:100B7000042808D14FF0E021096941F004014FF049
:100B8000E022116107E04FF0E021096921F0040142
:100B90004FF0E022116170470000FA050CED00E013
:100BA00000E400E080E100E080FFFF1F10B5044694
:100BB0009848844208D10121084600F0D0FE002167
:100BC000012000F0CCFE76E09348844208D1012158
:100BD000022000F0C4FE0021022000F0C0FE6AE006
:100BE0008E48844208D10121042000F0B8FE002183
:100BF000042000F0B4FE5EE08948844208D101215F
:100C0000082000F0ACFE0021082000F0A8FE52E011
:100C10008448844208D10121102000F0A0FE002168
:100C2000102000F09CFE46E07F48844208D101215C
:100C3000202000F094FE0021202000F090FE3AE0F9
:100C40007A48844208D10121402000F088FE00212A
:100C5000402000F084FE2EE07548844208D1012136
:100C6000802000F07CFE0021802000F078FE22E051
:100C70007048844208D10121801500F070FE0021E7
:100C8000A01500F06CFE16E06B48844208D10121EB
:100C9000401500F064FE0021601500F060FE0AE0DF
:100CA0006648844207D10121001500F058FE00215A
:100CB000201500F054FE10BDF0B50A4600210023B7
:100CC000002400BF3DE0012505FA01F3156805EA9F
:100CD00003049C4234D105684F000326BE40B5434F
:100CE000056015794E00B5400668354305601579F5
:100CF000012D02D01579022D16D185684F000326EB
:100D0000BE40B543856055794E00B5408668354391
:100D10008560456801268E40B543456045689679F3
:100D20008E40B6B235434560C5684F000326BE40CD
:100D3000B543C560D5794E00B540C6683543C5603A
:100D4000491C1029BFD3F0BD4FF6FF71016000218F
:100D5000017141718171C171704708B54FF48032E2
:100D60000092009A0A430092009AC261C161009AFF
:100D7000C261C2690092C269009208BD02460020A9
:100D800013690B400BB1012000E0002070470146C1
:100D9000086980B270470246002053690B400BB1CE
:100DA000012000E0002070470146486980B270478A
:100DB00001837047418370470AB1018300E041839A
:100DC00070474161704742694A4042617047F0B5DF
:100DD000002300244D07ED0E02FA05F3CE1000F1BA
:100DE000200555F826504E07F70E0F26BE40B54396
:100DF000CF1000F1200646F82750CE1000F1200554
:100E000055F8265045EA0304CE1000F1200545F8B8
:100E10002640F0BD000002400004024000080240ED
:100E2000000C024000100240001402400018024072
:100E3000001C024000200240002402400028024022
:100E4000FE4A1070704730B1FC49096841F4807166
:100E5000FA4A116005E0F949096821F48071F74AFE
:100E60001160704730B1F549096841F40071F34AE7
:100E7000116005E0F149096821F40071EF4A116041
:100E8000704730B1ED49096841F48061EB4A116067
:100E900005E0EA49096821F48061E84A1160704779
:100EA000E648006840F40060E44908607047E348A1
:100EB000006840F48050E14908607047DF48103016
:100EC000006800F0004028B1DD48DC49091D0860D9
:100ED000DC4808607047D9481030006840F0004096
:100EE000D6491031086070470920D4490C3109688F
:100EF00001F48031B1F5803F01D1012020E0CF49DC
:100F00000C31096801F0100109B1062018E0CB4945
:100F10000C31096801F4807109B1022010E0C74961
:100F20000C31096801F0EF0109B1072008E0C3495D
:100F30000C31096801F0020109B1082000E0092024
:100F4000704708B509200090FFF7CEFF009002E03F
:100F5000FFF7CAFF00909DF800000128F8D09DF827
:100F6000000008BD70B504460A460026092502B9EE
:100F700009E0012A01D1160205E0022A01D1160278
:100F800001E04FF44076FFF7DCFF0546092D2DD137
:100F9000AA481030006820F44070A8491031086059
:100FA00008460068304308600846006820F0F800F2
:100FB00008600846006844F0020108439F49103168
:100FC00008600846006840F480300860FFF7B9FF09
:100FD00005469A481030006820F002009749103109
:100FE00008600846006820F0F8000860284670BDD8
:100FF00030B5024600250924FFF7A3FF044602B9D5
:1010000009E0012A01D1150205E0022A01D11502E9
:1010100001E04FF44075092C20D188481030006859
:1010200020F4407085491031086008460068284364
:1010300008600846006840F0040008600846006840
:1010400040F480300860FFF77CFF04467B48103096
:10105000006820F00400794910310860204630BD56
:1010600030B5024600250924FFF76BFF044602B99C
:1010700009E0012A01D1150205E0022A01D1150279
:1010800001E04FF44075092C20D16C481030006805
:1010900020F4407069491031086008460068284310
:1010A00008600846006840F00400086008460068D0
:1010B00040F480300860FFF744FF04465F4810307A
:1010C000006820F004005D4910310860204630BD02
:1010D00030B5024600250924FFF733FF044602B964
:1010E00009E0012A01D1150205E0022A01D1150209
:1010F00001E04FF44075092C20D1504810300068B1
:1011000020F440704D4910310860084600682843BB
:1011100008600846006840F400400860084600681F
:1011200040F480300860FFF70CFF0446434810305D
:10113000006820F40040414910310860204630BD6D
:1011400070B5064614461D460922FFF7FAFE024610
:10115000092A1ED139481030006820F44070374900
:10116000103108600846006840F440700860084686
:10117000006840F00100086034607560FFF7E1FE30
:1011800002462E481030006820F001002B49103133
:101190000860104670BD30B502460C460925FFF7C1
:1011A000D0FE0546092D1DD124481030006820F4DA
:1011B00040702249103108600846006840F4007011
:1011C00008600846006840F0010008601460FFF7FE
:1011D000B8FE054619481030006820F00100174994
:1011E00010310860284630BD30B502460C4609254E
:1011F000FFF7A7FE0546092D1DD1104810300068E5
:1012000020F440700D49103108600846006840F431
:10121000807008600846006840F001000860148093
:10122000FFF78FFE054605481030006820F00100EA
:10123000024910310860284630BD0000003C0240E1
:1012400023016745AB89EFCD30B502460C46092531
:10125000FFF777FE0546092D17D19B48006820F45B
:1012600040709949086008460068086008460068B0
:1012700040F0010008601470FFF763FE05469248D5
:10128000006820F0010090490860284630BD8E4873
:10129000001D006800F0010028B18C488A49083917
:1012A00008608B48086070478748001D006840F060
:1012B00001008549091D0860704730B502460C469B
:1012C0000925FFF73EFE0546092D10D13CB17E48A9
:1012D000801D008890437C49891D088007E07A487A
:1012E000801D008891B208437749891D088030BD70
:1012F00030B502460C460925FFF723FE0546092DA9
:1013000010D13CB170480A30008890436E490A31D0
:10131000088007E06C480A30008891B208436A49A7
:101320000A31088030BDFF21674AD21D127802F0D1
:101330007F0140EA0102644BDB1D1A70704730B533
:1013400002460C460925FFF7FCFD0546092D10D184
:1013500044B15D48801D008891B208435A49891DF7
:10136000088006E05848801D008890435649891D32
:10137000088030BD30B502460C460925FFF7E1FD77
:101380000546092D10D144B14F480A30008891B26A
:1013900008434D490A31088006E04B480A3000886E
:1013A000904349490A31088030BD10B502460924EE
:1013B000FFF7C7FD0446092C02D14348401D0270C7
:1013C00010BDF0B504460D46FF260927FFF7B9FD0D
:1013D0000746092F0BD13C48001D007800F00F068E
:1013E00045EA0600104320433749091D0870F0BD47
:1013F0003549091D097821F01001334A121D117079
:10140000114609780143117070472F49091D097869
:1014100021F00C012C4A121D11701146097801436C
:101420001170704700B509222748001D007840F070
:1014300002002549091D0870FFF783FD024610468A
:1014400000BD2148001D0068C0F3471070471E48CA
:10145000801D008870471C480A30008870471A4871
:10146000801D0088704718480A30008870470020A7
:101470001549491D0978AA2901D0012000E0002062
:1014800070471148001D007800F00C00704729B12A
:101490000D4A126802430C4B1A6004E00A4A1268B3
:1014A0008243094B1A60704701460020064A121F0A
:1014B00012680A400AB1012000E00020704702498A
:1014C000091F086070470000103C02403B2A1908C1
:1014D0007F6E5D4CF948006840F00100F7490860F4
:1014E0000020F64908310860F4480068F4490840D3
:1014F000F2490860F348091D0860F348EF49843158
:101500000860F0481038091D0860EC48006820F4B5
:101510008020EA4908600020E8490C310860E7496A
:101520008C31086070470021E44A921C117011460A
:101530000870704710B501460022002300204A11B0
:10154000012A02D1DD4C236808E0022A03D1DB4CDA
:101550007034236802E0D94C7434236801F01F0210
:10156000012494401C400CB1012000E0002010BD7B
:1015700038B5002000900024002500BF3120FFF77F
:10158000D9FF05460098401C00900098B0F5A04F88
:1015900001D0002DF2D03120FFF7CCFF08B101249B
:1015A00000E00024204638BD01460020C34A1068F0
:1015B00020F0F80040EAC10010607047C34908609D
:1015C00070470021BD4A703211701170012802D09D
:1015D00004280AD104E00121B84A7032117005E0F4
:1015E0000521B64A7032117000E000BF00BF70479D
:1015F000B7490860704770B5049C41EA821501261E
:10160000C6EB530645EA0645054345EA0465AB4E7D
:10161000361D356070BDAD4908667047820142EAEB
:101620000172A64B84331A607047A84988667047D8
:1016300010B5830143EA016343EA02739F4C883487
:10164000236010BDA14908677047A049C86470476E
:1016500002460020994B0833186820F0EC6042EAFB
:1016600001031843954B0833186070470246002069
:10167000924B0833186820F0784042EA010318437F
:101680008E4B083318607047014600208B4A0832A1
:10169000106820F003000843106070478748083046
:1016A000006800F00C00704701460020834A0832B1
:1016B000106820F0F00008431060704701460020D9
:1016C0007E4A0832106820F4E050084310607047EA
:1016D00001460020794A0832106820F4604040EA50
:1016E000C10010607047F0B50021002200240225DF
:1016F00000260223714F08373F6807F00C0121B123
:10170000042905D0082937D105E0724F076036E07B
:10171000714F076033E0694F3F1D3F68C7F3805644
:10172000664F3F1D3F6807F03F036EB16A4FB7FB3E
:10173000F3F7DFF888C10CF1040CDCF800C0CCF33F
:10174000881C07FB0CF40CE0624FB7FBF3F7DFF8E3
:101750006CC10CF1040CDCF800C0CCF3881C07FB56
:101760000CF4564F3F1D3F68C7F301477F1C7D00B7
:10177000B4FBF5F7076002E0564F076000BF00BFFB
:101780004E4F08373F6807F0F0010909534F7A5C64
:101790000768D7404760494F08373F6807F4E05172
:1017A000890A4E4F7A5C4768D7408760434F0837B5
:1017B0003F6807F46041490B484F7A5C4768D7405F
:1017C000C760F0BD002100F44072B2F5407F0AD13D
:1017D0003A4A0832116821F4F811414A0240114393
:1017E000364A08321160354A70321268C0F30B0372
:1017F0001A43324B70331A607047354944390860D8
:10180000704733494039086070473649086070476F
:1018100001460020294A8C32106820F01F004A1E21
:101820001043264A8C321060704701460020234A3C
:101830008C32106820F4F8504A1E40EA02201F4AF9
:101840008C3210607047014600201C4A8C321068B0
:1018500020F4401008431060704701460020174AEA
:101860008C32106820F44000084310607047014635
:101870000020124A8C32106820F440300843106077
:10188000704719490860704739B10C4A3032126804
:1018900002430A4B30331A6006E0084A30321268BD
:1018A0008243064B30331A607047F9B1034A343231
:1018B00012680243014B34331A601CE000380240C6
:1018C000FFFFF6EA103000240030002000004742FD
:1018D000800E47420024F40000127A002400002009
:1018E000FFFCFF0F5C014742E01147428F4A12683C
:1018F00082438E4B1A60704739B18C4A121D1268B0
:1019000002438A4B1B1D1A6006E0884A121D1268AA
:101910008243864B1B1D1A60704739B1834A0C32D3
:1019200012680243814B0C331A6006E07F4A0C3286
:10193000126882437D4B0C331A60704739B17B4A81
:10194000103212680243794B10331A6006E0774A6E
:10195000103212688243754B10331A60704739B1E8
:10196000724A243A12680243704B243B1A6006E024
:101970006E4A243A126882436C4B243B1A607047CB
:1019800039B16A4A203A12680243684B203B1A6018
:1019900006E0664A203A12688243644B203B1A6094
:1019A000704739B1614A1C3A126802435F4B1C3BD5
:1019B0001A6006E05D4A1C3A126882435B4B1C3B8E
:1019C0001A60704739B1594A143A12680243574BAA
:1019D000143B1A6006E0554A143A12688243534B8E
:1019E000143B1A60704739B1504A103A12680243EA
:1019F0004E4B103B1A6006E04C4A103A1268824384
:101A00004A4B103B1A60704739B1484A1C32126881
:101A10000243464B1C331A6006E0444A1C321268EB
:101A20008243424B1C331A60704739B13F4A20321F
:101A3000126802433D4B20331A6006E03B4A2032D5
:101A400012688243394B20331A60704739B1374AE4
:101A5000243212680243354B24331A6006E0334ABD
:101A6000243212688243314B24331A60704739B1F3
:101A70002E4A2C32126802432C4B2C331A6006E09B
:101A80002A4A2C3212688243284B2C331A60704742
:101A900039B1264A303212680243244B30331A607F
:101AA00006E0224A303212688243204B30331A60FB
:101AB0007047012808D11D493C31096841F00801EF
:101AC0001A4A3C32116007E018493C31096821F09C
:101AD0000801164A3C321160704739B1134A273A5F
:101AE00012780243114B273B1A7006E00F4A273A3F
:101AF000127882430D4B273B1A7070470B484030D9
:101B0000006840F080700949403108607047014624
:101B10000020064A283A12680A400AB1012000E073
:101B20000020704701492639087070473438024058
:101B300010B50446FA48844208D101211020FFF76D
:101B400052FF00211020FFF74EFF57E0F548844276
:101B500009D101214804FFF735FF00214FF400307F
:101B6000FFF730FF4AE0F048844209D101218804A0
:101B7000FFF728FF00214FF48020FFF723FF3DE00F
:101B8000EA48844209D10121C804FFF71BFF002164
:101B90004FF40020FFF716FF30E0E548844209D1FA
:101BA00001210805FFF70EFF00214FF48010FFF719
:101BB00009FF23E0DF48844208D101212020FFF7FC
:101BC00012FF00212020FFF70EFF17E0DA488442C1
:101BD00009D101218807FFF7F5FE00214FF0804071
:101BE000FFF7F0FE0AE0D548844207D10121400505
:101BF000FFF7E8FE00216005FFF7E4FE10BD2DE9C8
:101C0000FF4705460E460024A14600BFA046B08906
:101C100000B100BF2C8A24F44054F08804432C8285
:101C2000AC8941F20C608443B088318908437189E2
:101C300008430443AC81AC8A24F44074B089044363
:101C4000AC826846FFF74FFDB548854202D0B948DF
:101C5000854202D1DDF80C9001E0DDF80890A889FA
:101C600000F4004040B109EBC90000EB09103168F5
:101C70004900B0FBF1F707E009EBC90000EB0910E0
:101C800031688900B0FBF1F76420B7FBF0F0040184
:101C90002009642101FB1078A88900F4004040B1BC
:101CA000322000EBC800B0FBF1F000F00700044365
:101CB00008E0322000EB08106421B0FBF1F000F0E6
:101CC0000F0004432C81BDE8FF874FF416510160DB
:101CD00000218180C18001810C214181002181810D
:101CE000704710B502460020108A20F470600B88FF
:101CF0004C8823438C882343CC8823431843108289
:101D000010BD0021018041808180C180704721B1D8
:101D1000828942F40052828104E082894DF6FF7389
:101D20001A4082817047028B02F47F420283028B49
:101D30000A430283704721B1828942F400428281C2
:101D400003E08289C2F30E028281704721B1828A48
:101D500042F40062828204E0828A4FF2FF731A40EA
:101D600082827047C1F308028280704701468888EA
:101D7000C0F308007047028A4FF6F0731A400282DF
:101D8000028A0A430282704721B1828942F002022C
:101D9000828104E082894FF6FD731A408281704788
:101DA00082894FF2FF731A40828182890A438281BD
:101DB0007047028A4FF6DF731A400282028A0A4392
:101DC0000282704721B1028A42F48042028204E01A
:101DD000028A4BF6FF731A4002827047818941F0F4
:101DE00001018181704721B1828A42F0080282821A
:101DF00004E0828A4FF6F7731A4082827047028BA2
:101E0000D2B20283028B42EA01220283704721B1DF
:101E1000828A42F02002828204E0828A4FF6DF73D7
:101E20001A408282704721B1828A42F01002828277
:101E300004E0828A4FF6EF731A4082827047828AEA
:101E40004FF6FB731A408282828A0A43828270476D
:101E500021B1828A42F00202828204E0828A4FF635
:101E6000FD731A40828270471AB1838A0B438382C2
:101E700002E0838A8B4383827047F0B503460024D7
:101E800000260025002040F66A17B94200D100BFA5
:101E90001846C1F3421401F01F06012707FA06F5A0
:101EA000012C01D10C3004E0022C01D1103000E0F3
:101EB00014301AB107682F43076002E00768AF4388
:101EC0000760F0BD02460020B1F5007F00D100BFE1
:101ED00013880B400BB1012000E00020704701F493
:101EE0000072B2F5007F00D100BFCA430280704784
:101EF00070B50246002400230025002040F66A1633
:101F0000B14200D100BFC1F3421501F01F03012609
:101F100006FA03F3012D13D19689334017E0000030
:101F2000001001400044004000480040004C0040C8
:101F3000005000400014014000780040007C004048
:101F4000022D02D1168A334001E0968A33400C12EA
:101F5000012606FA04F41688344013B10CB10120AE
:101F600000E0002070BD10B50022002340F66A1486
:101F7000A14200D100BF0A1201249440A3B2DC4365
:101F8000048010BD704700000FB4044910B503AAC7
:101F9000029800F0BDF810BC5DF814FB1C00002096
:101FA0002DE9F0410E460446002020622046E168FB
:101FB000884730B3252805D0D4E901219047206A0D
:101FC000401CF2E7E168204600278847050018D04A
:101FD000A5F14100192802D820354FF40067324698
:101FE000294620462760FEF709F940B1012804D0B0
:101FF000F61D26F007060836D8E7361DD6E7284630
:10200000DAE7206ABDE8F08170B50C460546012A82
:1020100005D02878800600D5EA69002302E0012374
:1020200005E05B1C934202D2E05C0028F9D1A8696C
:10203000E618C01AA861286A184428622846AFF337
:10204000008004E0D5E9012114F8010B9047B44267
:10205000F8D32846AFF3008070BD00004FF0013C7C
:1020600050F8042B51F8043B9A4221D1A2EB0C0307
:10207000934313EACC1317D150F8042B51F8043BC7
:102080009A4215D1A2EB0C03934313EACC130BD164
:1020900050F8042B51F8043B9A4209D1A2EB0C03EF
:1020A000934313EACC13DBD04FF00000704700BF1E
:1020B000D01A01BAB1FA81F101F0180122FA01F047
:1020C000CB40C1F12001DBB2C0B2C01A2CFA01F33F
:1020D000D11A914311EAC311E6D170477047704796
:1020E0007047704710B5436913B1AFF3008001E04A
:1020F000FFF78AFF012010BD127800F124010A7059
:1021000000224A700122EDE711684FF0FF32E9E743
:10211000074B70B50D467B4400F011F80446284685
:1021200000F020F810B14FF0FF3070BD204670BDB8
:102130000BE8FFFF01694A1C02610878704700B58F
:102140008FB0CDE901310021059105497944CDE9F0
:10215000031011466846FFF723FF0FB000BD0000D3
:10216000E5FFFFFF007B00F080007047754600F040
:102170002BF8AE4605006946534620F00700854619
:1021800018B020B5FEF790FCBDE820404FF00006E7
:102190004FF000074FF000084FF0000B21F007014F
:1021A000AC46ACE8C009ACE8C009ACE8C009ACE892
:1021B000C0098D46704710B50446AFF30080204635
:1021C000BDE81040FEF72EB800487047C40100205B
:1021D0004FF04070E1EE100A704753544D333220F7
:1021E000464C415348205445535400000C220108EA
:1021F0000000002034000000C40101084022010852
:1022000034000020F4070000E0010108007A030A0E
:102210000000000000000000010203040607080996
:1022200001000000000000000000000000000000AD
:10223000000000000102030401020304060708096C
:040000050801018964
:00000001FF
